:020000040800F2
:10000000002800205D1800080113000807130008ED
:100010000D13000813130008191300080000000056
:100020000000000000000000000000001F13000896
:100030002B130008000000003713000843130008CA
:10004000A5180008A5180008A5180008A51800089C
:10005000A5180008A5180008A5180008A51800088C
:10006000A5180008A5180008A5180008A51800087C
:10007000A5180008A5180008A5180008A51800086C
:10008000A5180008A5180008A5180008A51800085C
:10009000A5180008A5180008A5180008A51800084C
:1000A000A5180008A5180008A5180008A51800083C
:1000B00051130008A518000800000000A51800084A
:1000C000A51800080000000000000000A5180008A6
:1000D00000000000A5180008A51800080000000096
:1000E000A5180008A5180008A518000800000000C1
:1000F0000000000000000000000000000000000000
:0C01000000000000000000005FF808F1A3
:10010C0010B5054C237833B9044B13B10448AFF345
:10011C0000800123237010BD80000020000000002F
:10012C00FC2E000808B5034B1BB103490348AFF381
:10013C00008008BD0000000084000020FC2E000898
:10014C0080B500AF764B1B68013B032B00F271812D
:10015C0001A252F823F000BF75010008A5010008A8
:10016C00690200086103000801F096FA01F002FB35
:10017C0000F04CFC6B4B1B68012B40F05C81694B15
:10018C0000221A6000F032FA42F2107001F058F9B5
:10019C00634B02221A604EE1624B1B68012B07D0A5
:1001AC00604B5B68012B03D05E4B9B68012B03D12A
:1001BC0042F2107001F044F95B4B1B68012B16D115
:1001CC005A4B01221A605A4B01221A60594B0122D8
:1001DC001A60594B01221A60584B01221A60584B75
:1001EC0001221A6000F002FA4D4B01221A6000F055
:1001FC004DFD4C4B5B68012B0ED14A4B00225A60D3
:10020C00504B1B6801334F4A13604E4B1B68632BDA
:10021C0002DD4C4B01221A604A4B1B68184600F059
:10022C0037FE404B9B68012B06D13E4B00229A6057
:10023C00444B1B68444A13603A4B1B68002B00F07C
:10024C00FC80384B00221A6000F0D0F942F210709A
:10025C0001F0F6F8324B03221A60EEE0314B1B68CA
:10026C00012B07D02F4B5B68012B03D02D4B9B68C8
:10027C00012B03D142F2107001F0E2F82A4B1B68FB
:10028C00012B16D1294B01221A60294B01221A602D
:10029C00284B01221A60284B01221A60274B01229D
:1002AC001A60274B01221A6000F0A0F91C4B0122A6
:1002BC001A6000F041FD1B4B5B68012B0ED1194BF2
:1002CC0000225A60214B1B680133204A13601F4BDC
:1002DC001B68632B02DD1D4B01221A60114B9B68BE
:1002EC00012B06D10F4B00229A60184B1B68184A41
:1002FC001360164B1B68184600F0CAFD094B1B68AF
:10030C00002B00F09C80074B00221A6042F2107008
:10031C0001F096F800F06AF9014B04221A608EE0A5
:10032C001C0000209C000020C000002000000020C9
:10033C0004000020080000200C0000201000002009
:10034C00140000202C000020200000203000002091
:10035C00240000203C4B1B68012B07D03A4B5B68F8
:10036C00012B03D0384B9B68012B03D142F2107048
:10037C0001F066F8354B1B68012B16D1344B01226A
:10038C001A60344B01221A60334B01221A60334B32
:10039C0001221A60324B01221A60324B01221A6080
:1003AC0000F024F9304B01221A6000F01BFD264BA3
:1003BC005B68012B0ED1244B00225A602B4B1B681F
:1003CC0001332A4A1360294B1B68632B02DD274B30
:1003DC0001221A60254B1B68184600F059FD1A4B78
:1003EC009B68012B06D1184B00229A601F4B1B688F
:1003FC001F4A1360144B1B68002B22D0124B002297
:10040C001A60194B01221A6000F0F0F8104B01220F
:10041C001A60104B01221A600F4B01221A600F4B0D
:10042C0001221A600E4B01221A600E4B01221A6037
:10043C0007E000BF06E000BF04E000BF02E000BF21
:10044C0000E000BF00BF80BD9C000020C000002069
:10045C000000002004000020080000200C000020F8
:10046C0010000020140000201C000020340000208C
:10047C002800002080B483B000AF7860044A7B6809
:10048C00012142F8231000BF0C37BD4680BC7047D9
:10049C009C00002080B582B000AF00237B608FE011
:1004AC004C4A7B6852F823204B497B6841F8232047
:1004BC004A4A7B6852F8232046497B6841F823203E
:1004CC007B68002B0AD18021454801F0D1FC034602
:1004DC001946424A7B6842F823101CE07B68012BCA
:1004EC000BD14FF480713E4801F0C2FC0346194613
:1004FC003A4A7B6842F823100DE07B68022B0AD144
:10050C004FF40071364801F0B3FC03461946334AE8
:10051C007B6842F823102F4A7B6852F823202F491E
:10052C007B6851F823309A4247D12A4A7B6852F8AB
:10053C00232029497B6851F823309A423DD1264A21
:10054C007B6852F8232027497B6851F823309A4264
:10055C0019D0214A7B6852F8232022497B6841F844
:10056C002320204A7B6852F82330002B25D17B684E
:10057C00012B04D11C4A7B68322142F82310786885
:10058C00FFF778FF19E07B68012B08D1164A7B68CE
:10059C0052F823305A1E14497B6841F823207B689B
:1005AC00012B0AD1104A7B6852F82330002B04D15E
:1005BC000C4A7B68012142F823107B6801337B6075
:1005CC007B68022B7FF76CAF00BF00BF0837BD46BE
:1005DC0080BD00BF440000205000002038000020E7
:1005EC00000801405C0000206800002080B500AFCE
:1005FC00012204210E4801F052FC012220210C485A
:10060C0001F04DFC01220821094801F048FC0122AF
:10061C004021074801F043FC01220221044801F06B
:10062C003EFC01221021024801F039FC00BF80BDC4
:10063C000008014080B584B000AFF860B9607A6002
:10064C003B60FB68DBB21A460421194801F027FC19
:10065C00BB68DBB21A460821154801F020FC7B6808
:10066C00DBB21A461021124801F019FC3B68DBB2D0
:10067C001A4620210E4801F012FCBB69DBB21A4667
:10068C0040210B4801F00BFCFB69DBB21A468021C0
:10069C00074801F004FC3B6ADBB21A464FF4807148
:1006AC00034801F0FCFB00BF1037BD4680BD00BF06
:1006BC00000C014080B586B004AF78607B68002BDD
:1006CC000CD10123029300230193002300930023F8
:1006DC00002200210020FFF7ADFF9EE07B68012B7C
:1006EC000CD10123029301230193012300930123D5
:1006FC00002200210120FFF79DFF8EE07B68022B7A
:10070C000CD10023029301230193002300930023B7
:10071C00012200210020FFF78DFF7EE07B68032B78
:10072C000CD1002302930123019301230093002396
:10073C00002200210020FFF77DFF6EE07B68042B78
:10074C000CD1002302930023019301230093012376
:10075C00002200210120FFF76DFF5EE07B68052B76
:10076C000CD1002302930023019301230093002357
:10077C00002201210020FFF75DFF4EE07B68062B75
:10078C000CD1002302930023019300230093002338
:10079C00002201210020FFF74DFF3EE07B68072B74
:1007AC000CD1012302930123019301230093012314
:1007BC00002200210020FFF73DFF2EE07B68082B74
:1007CC000CD10023029300230193002300930023F8
:1007DC00002200210020FFF72DFF1EE07B68092B73
:1007EC000CD10023029300230193012300930023D7
:1007FC00002200210020FFF71DFF0EE07B68092B73
:10080C000BDD0123029300230193002300930023AB
:10081C00002200210020FFF70DFF00BF0837BD4666
:10082C0080BD000080B584B000AFF860B9607A601C
:10083C003B60FB68DBB21A464FF400711B4801F0B9
:10084C002EFBBB68DBB21A464FF48061174801F0EF
:10085C0026FB7B68DBB21A464FF40061134801F0AB
:10086C001EFB3B68DBB21A464FF480510F4801F077
:10087C0016FBBB69DBB21A464FF400510B4801F072
:10088C000EFBFB69DBB21A464FF48041074801F0BE
:10089C0006FB3B6ADBB21A464FF40041034801F0F9
:1008AC00FEFA00BF1037BD4680BD00BF000C0140F2
:1008BC0080B586B004AF78607B68002B0BD1012328
:1008CC0002930023019300230093002300220021B4
:1008DC000020FFF7A7FF7B68012B0BD101230293AC
:1008EC000123019301230093012300220021012005
:1008FC00FFF798FF7B68022B0BD100230293012397
:10090C000193002300930023012200210020FFF714
:10091C0089FF7B68032B0BD10023029301230193E6
:10092C00012300930023002200210020FFF77AFF0F
:10093C007B68042B0BD1002302930023019301232A
:10094C0000930123002200210120FFF76BFF7B683D
:10095C00052B0BD100230293002301930123009359
:10096C000023002201210020FFF75CFF7B68062B8F
:10097C000BD1002302930023019300230093002347
:10098C00002201210020FFF74DFF7B68072B0BD1C4
:10099C0001230293012301930123009301230022DD
:1009AC0000210020FFF73EFF7B68082B0BD10023B2
:1009BC0002930023019300230093002300220021C3
:1009CC000020FFF72FFF7B68092B0BD1002302932C
:1009DC000023019301230093002300220021002017
:1009EC00FFF720FF7B68092B0BDD0123029300230B
:1009FC000193002300930023002200210020FFF725
:100A0C0011FF00BF0837BD4680BD000080B500AFA8
:100A1C00934B1B68032B00F0D780032B00F318813A
:100A2C00012B02D0022B3ED012E18D4B02221A6018
:100A3C008C4B1B688C4A136000224FF480518B48FE
:100A4C0001F02DFA01224FF40051884801F027FAE9
:100A5C00854B1B68864A82FB03129210DB17D31A54
:100A6C001846FFF727FE834B1B68834A136000224E
:100A7C004FF480417D4801F012FA01224FF40041FD
:100A8C007A4801F00CFA7C4B1B68794A82FB031202
:100A9C009210DB17D31A1846FFF70AFF4FF4FA70BF
:100AAC0000F08CFCD9E0754B1B68032B08D16E4B06
:100ABC001B68002B04D16F4B1B686B4A136018E04A
:100ACC006E4B1B68042B08D1674B1B68002B04D1A1
:100ADC006B4B1B68644A13600BE0684B1B68022B62
:100AEC0007D1614B1B68002B03D15E4B1B685E4A20
:100AFC001360644B1B68022B08D15F4B1B68002BE7
:100B0C0004D15C4B1B685C4A136018E05D4B1B689E
:100B1C00032B08D1584B1B68002B04D1584B1B6876
:100B2C00554A13600BE0574B1B68042B07D1524BF3
:100B3C001B68002B03D14B4B1B684F4A1360524B65
:100B4C001B68012B40F08680454B03221A60012262
:100B5C004FF48051454801F0A2F900224FF40051A6
:100B6C00424801F09CF9404B1A68414B83FB02133D
:100B7C009910D317C91A0B469B000B445B00D11A72
:100B8C000846FFF797FD01224FF48041374801F0EA
:100B9C0086F900224FF40041344801F080F9364BBD
:100BAC001A68334B83FB02139910D317C91A0B46DF
:100BBC009B000B445B00D11A0846FFF779FE4FF4FB
:100BCC00FA7000F0FBFB45E02F4B1B68012B43D167
:100BDC00254B1B68013B244A1360214B02221A60EF
:100BEC0000224FF48051214801F059F901224FF4B1
:100BFC0000511E4801F053F91B4B1B681C4A82FB29
:100C0C0003129210DB17D31A1846FFF753FD1A4B39
:100C1C001B68013B184A136000224FF480411348B3
:100C2C0001F03DF901224FF40041104801F037F971
:100C3C00114B1B680E4A82FB03129210DB17D31A5E
:100C4C001846FFF735FE4FF4FA7000F0B7FB03E0DF
:100C5C0000BF02E000BF00E000BF00BF80BD00BFCE
:100C6C000800002020000020E000002000080140C7
:100C7C006766666628000020E40000200000002063
:100C8C002400002004000020B000002080B500AF3C
:100C9C00264B1B68032B2ED0032B40DC012B02D0E0
:100CAC00022B14D03BE0FFF7A1FC204B02221A6070
:100CBC00002202211E4801F0F2F8002210211C48EB
:100CCC0001F0EDF84FF4FA7000F08EFB2CE0194BAC
:100CDC001B68012B25D1154B03221A6002211448E5
:100CEC0001F0F5F81021124801F0F1F84FF4FA7008
:100CFC0000F07AFB15E00F4B1B68012B13D10B4B4B
:100D0C0002221A6002210A4801F0E1F81021084879
:100D1C0001F0DDF84FF4FA7000F066FB03E000BF61
:100D2C0002E000BF00E000BF00BF80BD0C0000204F
:100D3C0000080140B800002080B500AF264B1B68AE
:100D4C00032B2ED0032B40DC012B02D0022B14D012
:100D5C003BE0FFF74BFC204B02221A6000220421DF
:100D6C001E4801F09CF8002220211C4801F097F845
:100D7C004FF4FA7000F038FB2CE0194B1B68012B78
:100D8C0025D1154B03221A600421144801F09FF859
:100D9C002021124801F09BF84FF4FA7000F024FB6C
:100DAC0015E00F4B1B68012B13D10B4B02221A6061
:100DBC0004210A4801F08BF82021084801F087F83B
:100DCC004FF4FA7000F010FB03E000BF02E000BF2C
:100DDC0000E000BF00BF80BD1000002000080140F3
:100DEC00B800002080B500AF264B1B68032B2ED01B
:100DFC00032B40DC012B02D0022B14D03BE0FFF77D
:100E0C00F5FB204B02221A60002208211E4801F03B
:100E1C0046F8002240211C4801F041F84FF4FA70CA
:100E2C0000F0E2FA2CE0194B1B68012B25D1154B75
:100E3C0003221A600821144801F049F84021124895
:100E4C0001F045F84FF4FA7000F0CEFA15E00F4BB4
:100E5C001B68012B13D10B4B02221A6008210A4884
:100E6C0001F035F84021084801F031F84FF4FA70E0
:100E7C0000F0BAFA03E000BF02E000BF00E000BFE0
:100E8C0000BF80BD1400002000080140B800002005
:100E9C0080B582B000AF78605F4B1B68032B7BD0B2
:100EAC00032B00F3B080012B02D0022B33D0AAE02D
:100EBC00594B02221A6000224FF48051574800F01F
:100ECC00EEFF01224FF40051544800F0E8FF7B681C
:100EDC00534A82FB03129210DB17D31A1846FFF702
:100EEC00E9FB00224FF480414C4800F0D8FF01226E
:100EFC004FF40041494800F0D2FF7B68484A82FB1E
:100F0C0003129210DB17D31A1846FFF7D1FC64209A
:100F1C0000F080FA7CE0434B1B68012B75D13E4BF3
:100F2C0003221A6001224FF480513C4800F0B7FFB5
:100F3C0000224FF40051394800F0B1FF7A68384B69
:100F4C0083FB02139910D317C91A0B469B000B4451
:100F5C005B00D11A0846FFF7ADFB01224FF480412C
:100F6C002E4800F09CFF00224FF400412B4800F06B
:100F7C0096FF7A682A4B83FB02139910D317C91A70
:100F8C000B469B000B445B00D11A0846FFF790FC04
:100F9C00642000F03FFA38E0224B1B68012B36D15D
:100FAC001D4B02221A6000224FF480511B4800F0A6
:100FBC0076FF01224FF40051184800F070FF7B6857
:100FCC00174A82FB03129210DB17D31A1846FFF74D
:100FDC0071FB00224FF48041104800F060FF0122A9
:100FEC004FF400410D4800F05AFF7B680C4A82FB1D
:100FFC0003129210DB17D31A1846FFF759FC642022
:10100C0000F008FA03E000BF02E000BF00E000BF00
:10101C0000BF0837BD4680BD180000200008014005
:10102C0067666666BC00002080B500AF00F036FC39
:10103C0000F00CF800F092F800F044F8024801F0CF
:10104C0097FBFFF77DF8FCE7E800002080B590B037
:10105C0000AF07F1180328220021184601F040FFC9
:10106C003B1D00221A605A609A60DA601A610223F2
:10107C00BB610123BB621023FB6200237B6307F17E
:10108C001803184600F03CFF0346002B01D000F07B
:10109C00D5F80F237B600023BB600023FB6000238B
:1010AC003B6100237B613B1D0021184601F0A8F930
:1010BC000346002B01D000F0C1F800BF4037BD46FD
:1010CC0080BD000080B586B000AF07F10803002298
:1010DC001A605A609A60DA603B4600221A605A60C5
:1010EC001D4B4FF080421A601B4B41F63F725A6009
:1010FC00194B00229A60184B0A22DA60164B002218
:10110C001A61154B00229A61134801F0E1FA03466B
:10111C00002B01D000F092F84FF48053BB6007F124
:10112C00080319460C4801F077FC0346002B01D04C
:10113C0000F084F800233B6000237B603B4619469B
:10114C00054801F03FFE0346002B01D000F076F875
:10115C0000BF1837BD4680BDE800002080B586B0C2
:10116C0000AF07F1080300221A605A609A60DA6037
:10117C00294B9B69284A43F004039361264B9B69D6
:10118C0003F004037B607B68234B9B69224A43F08A
:10119C0008039361204B9B6903F008033B603B6899
:1011AC0000224FF27E011D4800F079FE00224FF61E
:1011BC00FC711B4800F073FE4FF27E03BB600123F1
:1011CC00FB6000233B6102237B6107F10803194696
:1011DC00124800F0D3FC4FF46073BB600023FB603B
:1011EC0000233B6107F1080319460C4800F0C6FCCC
:1011FC004FF6FC73BB600123FB6000233B610223B1
:10120C007B6107F108031946054800F0B7FC00BFE5
:10121C001837BD4680BD00BF0010024000080140D9
:10122C00000C014080B582B000AF786000F01EF970
:10123C00FFF730F900BF0837BD4680BD80B400AF62
:10124C0072B600BFFEE7000080B485B000AF154B4E
:10125C009B69144A43F001039361124B9B6903F0A1
:10126C000103BB60BB680F4BDB690E4A43F0805334
:10127C00D3610C4BDB6903F080537B607B680A4BBA
:10128C005B68FB60FB6823F0E063FB60FB6843F08A
:10129C008063FB60044AFB68536000BF1437BD4693
:1012AC0080BC7047001002400000014080B584B043
:1012BC0000AF78607B681B68B3F1804F13D10C4B87
:1012CC00DB690B4A43F00103D361094BDB6903F083
:1012DC000103FB60FB68002200211C2000F017FCBE
:1012EC001C2000F030FC00BF1037BD4680BD00BF95
:1012FC000010024080B400AFFEE780B400AFFEE700
:10130C0080B400AFFEE780B400AFFEE780B400AF5E
:10131C00FEE780B400AF00BFBD4680BC704780B410
:10132C0000AF00BFBD4680BC704780B400AF00BFAB
:10133C00BD4680BC704780B500AF00F0F5FA00BF29
:10134C0080BD000080B500AF024801F05DFA00BF1F
:10135C0080BD00BFE800002080B400AF00BFBD46D8
:10136C0080BC704780B483B000AF78600A227B6881
:10137C0093FBF2F3044A1360044B00221A6000BF83
:10138C000C37BD4680BC7047C4000020A80000206C
:10139C0080B483B000AF78600A227B6893FBF2F3D1
:1013AC00044A1360044B00221A6000BF0C37BD4680
:1013BC0080BC7047C8000020AC00002080B483B013
:1013CC0000AF78600A227B6893FBF2F3044A136047
:1013DC00044B00221A6000BF0C37BD4680BC70471E
:1013EC00CC000020B000002080B483B000AF786047
:1013FC000A227B6893FBF2F3044A1360044B00222D
:10140C001A6000BF0C37BD4680BC7047D40000206A
:10141C00B800002080B483B000AF78600A227B68EB
:10142C0093FBF2F3044A1360044B00221A6000BFD2
:10143C000C37BD4680BC7047D8000020BC00002093
:10144C0080B483B000AF78600A227B6893FBF2F320
:10145C00044A1360044B00221A6000BF0C37BD46CF
:10146C0080BC7047DC000020C000002080B400AFBE
:10147C00394B1B68002B0BDD374B1B68013B364A85
:10148C001360354B1B68002B02D1344B01221A60C0
:10149C00334B1B68002B0BDD314B1B68013B304A77
:1014AC0013602F4B1B68002B02D12E4B01221A60AC
:1014BC002D4B1B68002B0BDD2B4B1B68013B2A4A69
:1014CC001360294B1B68002B02D1284B01221A6098
:1014DC00274B1B68002B0BDD254B1B68013B244A5B
:1014EC001360234B1B68002B02D1224B01221A6084
:1014FC00214B1B68002B0BDD1F4B1B68013B1E4A4D
:10150C0013601D4B1B68002B02D11C4B01221A606F
:10151C001B4B1B68002B0BDD194B1B68013B184A3E
:10152C001360174B1B68002B02D1164B01221A605B
:10153C00154B1B68002B0BDD134B1B68013B124A30
:10154C001360114B1B68002B02D1104B01221A6047
:10155C0000BFBD4680BC7047C4000020A80000201E
:10156C00C8000020AC000020CC000020B0000020FF
:10157C00D0000020B4000020D4000020B8000020CF
:10158C00D8000020BC000020DC000020C00000209F
:10159C0080B500AF00220221074800F080FC012238
:1015AC000421054800F07BFC01220821024800F0D0
:1015BC0076FC00BF80BD00BF0008014080B500AFC5
:1015CC0000221021074800F06AFC01222021054866
:1015DC0000F065FC01224021024800F060FC00BFD5
:1015EC0080BD00BF0008014080B500AF0122022180
:1015FC00074800F054FC00220421054800F04FFC81
:10160C0001220821024800F04AFC00BF80BD00BF47
:10161C000008014080B500AF01221021074800F0FE
:10162C003EFC00222021054800F039FC012240211B
:10163C00024800F034FC00BF80BD00BF0008014030
:10164C0080B500AF01220221074800F028FC0122DE
:10165C000421054800F023FC00220821024800F078
:10166C001EFC00BF80BD00BF0008014080B500AF6C
:10167C0001221021074800F012FC0122202105480C
:10168C0000F00DFC00224021024800F008FC00BFD5
:10169C0080BD00BF0008014080B500AF304B1B6817
:1016AC00013B032B52D801A252F823F0C9160008B3
:1016BC00E71600080D17000833170008284B022204
:1016CC001A60FFF765FF274B1B684FF47A7202FB19
:1016DC0003F31846FFF746FE3FE0234B1B68012B34
:1016EC0036D11F4B03221A60FFF7AAFF1F4B1B6852
:1016FC004FF47A7202FB03F31846FFF733FE27E030
:10170C00194B1B68012B25D1154B04221A60FFF7CE
:10171C006BFF174B1B684FF47A7202FB03F31846EE
:10172C00FFF720FE16E0104B1B68012B14D10C4B5D
:10173C0001221A60FFF72CFF0A4B1B684FF47A72D8
:10174C0002FB03F31846FFF70DFE05E000BF04E0B3
:10175C0000BF02E000BF00E000BF00BF80BD00BFC3
:10176C000000002020000020A800002028000020FD
:10177C002400002080B500AF304B1B68013B032BCD
:10178C0052D801A252F823F0A5170008C31700087D
:10179C00E91700080F180008284B02221A60FFF7FF
:1017AC0065FF274B1B684FF47A7202FB03F3184654
:1017BC00FFF7EEFD3FE0234B1B68012B36D11F4B8F
:1017CC0003221A60FFF726FF1F4B1B684FF47A7237
:1017DC0002FB03F31846FFF7DBFD27E0194B1B68F0
:1017EC00012B25D1154B04221A60FFF7E7FE174B8E
:1017FC001B684FF47A7202FB03F31846FFF7C8FD1F
:10180C0016E0104B1B68012B14D10C4B01221A60F3
:10181C00FFF72CFF0A4B1B684FF47A7202FB03F3A1
:10182C001846FFF7B5FD05E000BF04E000BF02E07D
:10183C0000BF00E000BF00BF80BD00BF040000205F
:10184C0028000020AC0000202400002020000020F4
:10185C000C480D490D4A002302E0D458C4500433FF
:10186C00C4188C42F9D30A4A0A4C002301E01360D5
:10187C000432A242FBD3FFF76FFD01F00DFBFFF723
:10188C00D3FB704700000020800000203C2F000894
:10189C008000002034010020FEE7000080B500AF7E
:1018AC00084B1B68074A43F010031360032000F039
:1018BC0023F90F2000F008F8FFF7C6FC00231846A8
:1018CC0080BD00BF0020024080B582B000AF7860C0
:1018DC00124B1A68124B1B7819464FF47A73B3FBF0
:1018EC00F1F3B2FBF3F3184600F03BF90346002B7F
:1018FC0001D001230EE07B680F2B0AD800227968F7
:10190C004FF0FF3000F003F9064A7B6813600023A8
:10191C0000E0012318460837BD4680BD7400002046
:10192C007C0000207800002080B400AF054B1B78B1
:10193C001A46054B1B681344034A136000BFBD468F
:10194C0080BC70477C0000203001002080B400AFC8
:10195C00024B1B681846BD4680BC70473001002006
:10196C0080B485B000AF78607B6803F00703FB6040
:10197C000C4BDB68BB60BA684FF6FF031340BB60CF
:10198C00FB681A02BB68134343F0BF6343F4003394
:10199C00BB60044ABB68D36000BF1437BD4680BC33
:1019AC00704700BF00ED00E080B400AF044BDB6873
:1019BC001B0A03F007031846BD4680BC704700BFE6
:1019CC0000ED00E080B483B000AF0346FB7197F9E3
:1019DC000730002B0BDBFB7903F01F02064997F94C
:1019EC0007305B09012000FA02F241F8232000BF06
:1019FC000C37BD4680BC704700E100E080B483B07A
:101A0C0000AF03463960FB7197F90730002B0ADBF6
:101A1C003B68DAB20C4997F907301201D2B20B4489
:101A2C0083F800230AE03B68DAB20849FB7903F03B
:101A3C000F03043B1201D2B20B441A7600BF0C37D1
:101A4C00BD4680BC704700BF00E100E000ED00E047
:101A5C0080B489B000AFF860B9607A60FB6803F0BD
:101A6C000703FB61FB69C3F10703042B28BF0423A5
:101A7C00BB61FB690433062B02D9FB69033B00E015
:101A8C0000237B614FF0FF32BB6902FA03F3DA43A8
:101A9C00BB681A407B699A404FF0FF317B6901FAB1
:101AAC0003F3D9437B680B40134318462437BD46D8
:101ABC0080BC704780B582B000AF78607B68013B1A
:101ACC00B3F1807F01D301230FE00A4A7B68013B0D
:101ADC0053600F214FF0FF30FFF790FF054B0022B2
:101AEC009A60044B07221A60002318460837BD463B
:101AFC0080BD00BF10E000E080B582B000AF786020
:101B0C007868FFF72DFF00BF0837BD4680BD80B554
:101B1C0086B000AF0346B9607A60FB7300237B612B
:101B2C00FFF742FF78617A68B9687869FFF790FF30
:101B3C00024697F90F3011461846FFF75FFF00BFBA
:101B4C001837BD4680BD80B582B000AF0346FB712F
:101B5C0097F907301846FFF735FF00BF0837BD4629
:101B6C0080BD80B582B000AF78607868FFF7A2FFC7
:101B7C00034618460837BD4680BD000080B48BB0C4
:101B8C0000AF7860396000237B6200233B6248E140
:101B9C0001227B6A02FA03F3FB613B681B68FA695A
:101BAC001340BB61BA69FB699A4240F037813B68CC
:101BBC005B68A34A93425ED0A14A934275D8A14A6E
:101BCC00934258D09F4A93426FD89F4A934252D027
:101BDC009D4A934269D89D4A93424CD09B4A93426A
:101BEC0063D89B4A934246D0994A93425DD8122BB4
:101BFC002AD8122B59D801A252F823F0831C0008C2
:101C0C005D1C00086F1C0008B11C0008B71C000804
:101C1C00B71C0008B71C0008B71C0008B71C00084C
:101C2C00B71C0008B71C0008B71C0008B71C00083C
:101C3C00B71C0008B71C0008B71C0008B71C00082C
:101C4C00651C0008791C0008824A934213D02CE0D2
:101C5C003B68DB683B6229E03B68DB6804333B6232
:101C6C0024E03B68DB6808333B621FE03B68DB68C1
:101C7C000C333B621AE03B689B68002B02D10423B7
:101C8C003B6213E03B689B68012B05D108233B6248
:101C9C007B68FA691A6109E008233B627B68FA6980
:101CAC005A6103E000233B6200E000BFBB69FF2BDD
:101CBC0001D87B6801E07B6804337B61BB69FF2B37
:101CCC0002D87B6A9B0002E07B6A083B9B003B616D
:101CDC007B691A680F213B6901FA03F3DB431A4055
:101CEC00396A3B6901FA03F31A437B691A603B6852
:101CFC005B6803F08053002B00F09080564B9B697F
:101D0C00554A43F001039361534B9B6903F0010364
:101D1C00BB60BB68514A7B6A9B08023352F8233084
:101D2C00FB607B6A03F003039B000F2202FA03F3B0
:101D3C00DB43FA681340FB607B68494A93420DD041
:101D4C007B68484A934207D07B68474A934201D14B
:101D5C00022304E0032302E0012300E000237A6A5B
:101D6C0002F0030292009340FA681343FB603B4974
:101D7C007B6A9B080233FA6841F823203B685B6856
:101D8C0003F48033002B06D0384B1A683749BB69F3
:101D9C0013430B6006E0354B1A68BB69DB433349D0
:101DAC0013400B603B685B6803F40033002B06D0D8
:101DBC002E4B5A682D49BB6913434B6006E02B4BE5
:101DCC005A68BB69DB43294913404B603B685B682D
:101DDC0003F48013002B06D0244B9A682349BB696B
:101DEC0013438B6006E0214B9A68BB69DB431F49A8
:101DFC0013408B603B685B6803F40013002B06D028
:101E0C001A4BDA681949BB691343CB6006E0174BD0
:101E1C00DA68BB69DB4315491340CB607B6A01333D
:101E2C007B623B681A687B6A22FA03F3002B7FF40F
:101E3C00AFAE00BF00BF2C37BD4680BC704700BFA3
:101E4C0000003210000031100000221000002110A0
:101E5C0000001210000011100010024000000140A0
:101E6C0000080140000C014000100140000401403A
:101E7C0080B485B000AF78600B467B807B689A6835
:101E8C007B881340002B02D00123FB7301E000235D
:101E9C00FB73FB7B18461437BD4680BC704780B47F
:101EAC0083B000AF78600B467B8013467B707B78E9
:101EBC00002B03D07A887B681A6103E07B881A04B4
:101ECC007B681A6100BF0C37BD4680BC704780B47C
:101EDC0085B000AF78600B467B807B68DB68FB606D
:101EEC007A88FB6813401A04FB68D9437B880B4043
:101EFC001A437B681A6100BF1437BD4680BC70471B
:101F0C0080B586B000AF78607B68002B01D10123CF
:101F1C006CE27B681B6803F00103002B00F08780E8
:101F2C00924B5B6803F00C03042B0CD08F4B5B685B
:101F3C0003F00C03082B12D18C4B5B6803F4803339
:101F4C00B3F5803F0BD1894B1B6803F40033002B96
:101F5C006CD07B685B68002B68D1012346E27B6800
:101F6C005B68B3F5803F06D1804B1B687F4A43F416
:101F7C00803313602EE07B685B68002B0CD17B4BAD
:101F8C001B687A4A23F480331360784B1B68774ABA
:101F9C0023F4802313601DE07B685B68B3F5A02FEE
:101FAC000CD1724B1B68714A43F4802313606F4B46
:101FBC001B686E4A43F4803313600BE06B4B1B6859
:101FCC006A4A23F480331360684B1B68674A23F416
:101FDC00802313607B685B68002B13D0FFF7B6FC83
:101FEC00386108E0FFF7B2FC02463B69D31A642B58
:101FFC0001D90323FAE15D4B1B6803F40033002B7A
:10200C00F0D014E0FFF7A2FC386108E0FFF79EFC6B
:10201C0002463B69D31A642B01D90323E6E1534BE7
:10202C001B6803F40033002BF0D100E000BF7B6889
:10203C001B6803F00203002B63D04C4B5B6803F06E
:10204C000C03002B0BD0494B5B6803F00C03082BE3
:10205C001CD1464B5B6803F48033002B16D1434BE9
:10206C001B6803F00203002B05D07B681B69012B56
:10207C0001D00123BAE13D4B1B6823F0F8027B68C9
:10208C005B69DB00394913430B603AE07B681B69E1
:10209C00002B20D0364B01221A60FFF757FC386119
:1020AC0008E0FFF753FC02463B69D31A022B01D917
:1020BC0003239BE12D4B1B6803F00203002BF0D094
:1020CC002A4B1B6823F0F8027B685B69DB0027490D
:1020DC0013430B6015E0264B00221A60FFF736FC09
:1020EC00386108E0FFF732FC02463B69D31A022B39
:1020FC0001D903237AE11D4B1B6803F00203002B6B
:10210C00F0D17B681B6803F00803002B3AD07B6886
:10211C009B69002B19D0174B01221A60FFF716FC94
:10212C00386108E0FFF712FC02463B69D31A022B18
:10213C0001D903235AE10D4B5B6A03F00203002B18
:10214C00F0D0012000F0A6FA1CE00A4B00221A6025
:10215C00FFF7FCFB38610FE0FFF7F8FB02463B6929
:10216C00D31A022B08D9032340E100BF0010024010
:10217C0000004242800442429E4B5B6A03F0020321
:10218C00002BE9D17B681B6803F00403002B00F0E3
:10219C00A6800023FB75974BDB6903F08053002B63
:1021AC000DD1944BDB69934A43F08053D361914B2F
:1021BC00DB6903F08053BB60BB680123FB758E4B5E
:1021CC001B6803F48073002B18D18B4B1B688A4A55
:1021DC0043F480731360FFF7B9FB386108E0FFF735
:1021EC00B5FB02463B69D31A642B01D90323FDE0EE
:1021FC00814B1B6803F48073002BF0D07B68DB6889
:10220C00012B06D17B4B1B6A7A4A43F00103136204
:10221C002DE07B68DB68002B0CD1764B1B6A754A72
:10222C0023F001031362734B1B6A724A23F00403FD
:10223C0013621CE07B68DB68052B0CD16D4B1B6AB1
:10224C006C4A43F0040313626A4B1B6A694A43F0FD
:10225C00010313620BE0674B1B6A664A23F0010310
:10226C001362644B1B6A634A23F0040313627B689A
:10227C00DB68002B15D0FFF769FB38610AE0FFF72C
:10228C0065FB02463B69D31A41F28832934201D96D
:10229C000323ABE0574B1B6A03F00203002BEED079
:1022AC0014E0FFF753FB38610AE0FFF74FFB0246DF
:1022BC003B69D31A41F28832934201D9032395E04A
:1022CC004C4B1B6A03F00203002BEED1FB7D012B60
:1022DC0005D1484BDB69474A23F08053D3617B68B7
:1022EC00DB69002B00F08180424B5B6803F00C0330
:1022FC00082B61D07B68DB69022B46D13F4B002257
:10230C001A60FFF723FB386108E0FFF71FFB02465A
:10231C003B69D31A022B01D9032367E0354B1B68A9
:10232C0003F00073002BF0D17B681B6AB3F5803F80
:10233C0008D1304B5B6823F400327B689B682D49D5
:10234C0013434B602B4B5B6823F474127B68196A44
:10235C007B685B6A0B43274913434B60274B012275
:10236C001A60FFF7F3FA386108E0FFF7EFFA02465C
:10237C003B69D31A022B01D9032337E01D4B1B6891
:10238C0003F00073002BF0D02FE01C4B00221A60DE
:10239C00FFF7DCFA386108E0FFF7D8FA02463B6930
:1023AC00D31A022B01D9032320E0124B1B6803F034
:1023BC000073002BF0D118E07B68DB69012B01D195
:1023CC00012313E00B4B5B68FB60FB6803F480326A
:1023DC007B681B6A9A4206D1FB6803F470127B6817
:1023EC005B6A9A4201D0012300E00023184618379B
:1023FC00BD4680BD001002400070004060004242AB
:10240C0080B584B000AF786039607B68002B01D157
:10241C000123D0E06A4B1B6803F007033A689A4229
:10242C0010D9674B1B6823F0070265493B681343BF
:10243C000B60634B1B6803F007033A689A4201D0A8
:10244C000123B8E07B681B6803F00203002B20D04B
:10245C007B681B6803F00403002B05D0594B5B68A9
:10246C00584A43F4E06353607B681B6803F008032D
:10247C00002B05D0534B5B68524A43F460535360B6
:10248C00504B5B6823F0F0027B689B684D4913430B
:10249C004B607B681B6803F00103002B40D07B680A
:1024AC005B68012B07D1474B1B6803F40033002BEF
:1024BC0015D101237FE07B685B68022B07D1414B70
:1024CC001B6803F00073002B09D1012373E03D4B13
:1024DC001B6803F00203002B01D101236BE0394B85
:1024EC005B6823F003027B685B68364913434B60DF
:1024FC00FFF72CFAF8600AE0FFF728FA0246FB68AF
:10250C00D31A41F28832934201D9032353E02D4B65
:10251C005B6803F00C027B685B689B009A42EBD112
:10252C00274B1B6803F007033A689A4210D2244BDE
:10253C001B6823F0070222493B6813430B60204BB6
:10254C001B6803F007033A689A4201D0012332E07A
:10255C007B681B6803F00403002B08D0194B5B68E5
:10256C0023F4E0627B68DB68164913434B607B689D
:10257C001B6803F00803002B09D0124B5B6823F493
:10258C0060527B681B69DB000E4913434B6000F003
:10259C0021F802460B4B5B681B0903F00F030A4939
:1025AC00CB5C22FA03F3094A1360094B1B681846EB
:1025BC00FFF78AF9002318461037BD4680BD00BFCF
:1025CC000020024000100240242F0008740000205C
:1025DC007800002090B48AB000AF2A4B3C1D0FCB82
:1025EC0084E80F0040F201233B800023FB610023B1
:1025FC00BB6100237B6200237B6100233B62224B87
:10260C005B68FB61FB6903F00C03042B02D0082B05
:10261C0003D02DE01D4B3B622DE0FB699B0C03F0BE
:10262C000F0307F12802134413F8243C7B61FB6968
:10263C0003F48033002B13D0134B5B685B0C03F05B
:10264C00010307F12802134413F8283CBB617B6992
:10265C000E4A02FB03F2BB69B2FBF3F37B6204E0AC
:10266C007B690B4A02FB03F37B627B6A3B6202E0F1
:10267C00064B3B6200BF3B6A18462837BD4690BCF0
:10268C00704700BF142F00080010024000127A009F
:10269C0000093D0080B485B000AF78600A4B1B6820
:1026AC000A4AA2FB03235B0A7A6802FB03F3FB6072
:1026BC0000BFFB685A1EFA60002BF9D100BF00BFA7
:1026CC001437BD4680BC704774000020D34D621097
:1026DC0080B582B000AF78607B68002B01D10123FC
:1026EC0041E07B6893F83D30DBB2002B06D17B6870
:1026FC00002283F83C207868FEF7D8FD7B68022224
:10270C0083F83D207B681A687B68043319461046B1
:10271C0000F06AFA7B68012283F846207B6801226C
:10272C0083F83E207B68012283F83F207B680122DE
:10273C0083F840207B68012283F841207B680122CA
:10274C0083F842207B68012283F843207B680122B6
:10275C0083F844207B68012283F845207B680122A2
:10276C0083F83D20002318460837BD4680BD000085
:10277C0080B485B000AF78607B6893F83D30DBB2F5
:10278C00012B01D0012335E07B68022283F83D2028
:10279C007B681B68DA687B681B6842F00102DA60B0
:1027AC007B681B68164A934209D07B681B68B3F19F
:1027BC00804F04D07B681B68124A934211D17B680E
:1027CC001B689B6803F00703FB60FB68062B10D0AB
:1027DC007B681B681A687B681B6842F001021A60F0
:1027EC0007E07B681B681A687B681B6842F0010273
:1027FC001A60002318461437BD4680BC704700BFD2
:10280C00002C01400004004080B582B000AF78601D
:10281C007B681B681B6903F00203022B22D17B68C7
:10282C001B68DB6803F00203022B1BD17B681B685F
:10283C006FF002021A617B6801221A777B681B68B1
:10284C009B6903F00303002B03D0786800F0B1F907
:10285C0005E0786800F0A4F9786800F0B3F97B68BB
:10286C0000221A777B681B681B6903F00403042B96
:10287C0022D17B681B68DB6803F00403042B1BD19B
:10288C007B681B686FF004021A617B6802221A775E
:10289C007B681B689B6903F44073002B03D078683A
:1028AC0000F087F905E0786800F07AF9786800F0B4
:1028BC0089F97B6800221A777B681B681B6903F017
:1028CC000803082B22D17B681B68DB6803F0080324
:1028DC00082B1BD17B681B686FF008021A617B68A0
:1028EC0004221A777B681B68DB6903F00303002B57
:1028FC0003D0786800F05DF905E0786800F050F9D5
:10290C00786800F05FF97B6800221A777B681B6897
:10291C001B6903F01003102B22D17B681B68DB684A
:10292C0003F01003102B1BD17B681B686FF0100297
:10293C001A617B6808221A777B681B68DB6903F4D1
:10294C004073002B03D0786800F033F905E0786809
:10295C0000F026F9786800F035F97B6800221A77C8
:10296C007B681B681B6903F00103012B0ED17B688C
:10297C001B68DB6803F00103012B07D17B681B6824
:10298C006FF001021A617868FEF74CFC7B681B68DB
:10299C001B6903F08003802B0ED17B681B68DB68FE
:1029AC0003F08003802B07D17B681B686FF08002DB
:1029BC001A61786800F067FA7B681B681B6903F082
:1029CC004003402B0ED17B681B68DB6803F040038F
:1029DC00402B07D17B681B686FF040021A61786846
:1029EC0000F0F9F87B681B681B6903F02003202BAF
:1029FC000ED17B681B68DB6803F02003202B07D10A
:102A0C007B681B686FF020021A61786800F032FA5C
:102A1C0000BF0837BD4680BD80B584B000AF78607C
:102A2C0039607B6893F83C30012B01D10223B3E071
:102A3C007B68012283F83C207B68022283F83D20CE
:102A4C007B681B689B68FB60FB6823F07703FB606B
:102A5C00FB6823F47F43FB607B681B68FA689A6011
:102A6C003B681B68B3F5005F3ED0B3F5005F00F226
:102A7C008780B3F5805F00F08580B3F5805F7FD8E9
:102A8C00702B1AD0702B7BD8602B50D0602B77D842
:102A9C00502B3CD0502B73D8402B58D0402B6FD898
:102AAC00302B64D0302B6BD8202B60D0202B67D8E8
:102ABC00002B5CD0102B5AD062E07B6818683B6806
:102ACC0099683B685A683B68DB6800F05CF97B6886
:102ADC001B689B68FB60FB6843F07703FB607B68BB
:102AEC001B68FA689A604EE07B6818683B689968C6
:102AFC003B685A683B68DB6800F045F97B681B68EB
:102B0C009A687B681B6842F480429A603BE07B6861
:102B1C0018683B6859683B68DB681A4600F0BCF8DB
:102B2C007B681B685021184600F013F92BE07B687A
:102B3C0018683B6859683B68DB681A4600F0DAF89D
:102B4C007B681B686021184600F003F91BE07B686A
:102B5C0018683B6859683B68DB681A4600F09CF8BB
:102B6C007B681B684021184600F0F3F80BE07B688B
:102B7C001A683B681B681946104600F0EAF802E038
:102B8C0000BF00E000BF7B68012283F83D207B681A
:102B9C00002283F83C20002318461037BD4680BD28
:102BAC0080B483B000AF786000BF0C37BD4680BCEA
:102BBC00704780B483B000AF786000BF0C37BD465F
:102BCC0080BC704780B483B000AF786000BF0C3716
:102BDC00BD4680BC704780B483B000AF786000BF46
:102BEC000C37BD4680BC704780B485B000AF7860B0
:102BFC0039607B681B68FB607B68254A934207D071
:102C0C007B68B3F1804F03D07B68224A934208D192
:102C1C00FB6823F07003FB603B685B68FA68134346
:102C2C00FB607B681A4A934207D07B68B3F1804FF4
:102C3C0003D07B68174A934208D1FB6823F4407396
:102C4C00FB603B68DB68FA681343FB60FB6823F0AE
:102C5C0080023B685B691343FB607B68FA681A600F
:102C6C003B689A687B68DA623B681A687B689A6290
:102C7C007B68074A934203D13B681A697B681A63E5
:102C8C007B6801225A6100BF1437BD4680BC704777
:102C9C00002C01400004004080B487B000AFF86005
:102CAC00B9607A60FB681B6A7B61FB681B6A23F066
:102CBC000102FB681A62FB689B693B613B6923F06C
:102CCC00F0033B617B681B013A6913433B617B69F1
:102CDC0023F00A037B617A69BB6813437B61FB6851
:102CEC003A699A61FB687A691A6200BF1C37BD4663
:102CFC0080BC704780B487B000AFF860B9607A6070
:102D0C00FB681B6A23F01002FB681A62FB689B6964
:102D1C007B61FB681B6A3B617B6923F470437B61BD
:102D2C007B681B037A6913437B613B6923F0A00327
:102D3C003B61BB681B013A6913433B61FB687A69D1
:102D4C009A61FB683A691A6200BF1C37BD4680BCA9
:102D5C00704780B485B000AF786039607B689B6841
:102D6C00FB60FB6823F07003FB603A68FB6813435D
:102D7C0043F00703FB607B68FA689A6000BF143766
:102D8C00BD4680BC704780B487B000AFF860B960B6
:102D9C007A603B60FB689B687B617B6923F47F43B3
:102DAC007B613B681A027B681A43BB6813437A69E0
:102DBC0013437B61FB687A699A6000BF1C37BD4680
:102DCC0080BC704780B485B000AF786039607B6898
:102DDC0093F83C30012B01D1022341E07B680122A6
:102DEC0083F83C207B68022283F83D207B681B68BB
:102DFC005B68FB607B681B689B68BB60FB6823F0AF
:102E0C007003FB603B681B68FA681343FB607B68CC
:102E1C001B68FA685A607B681B68144A934209D095
:102E2C007B681B68B3F1804F04D07B681B68104A29
:102E3C0093420CD1BB6823F08003BB603B685B689A
:102E4C00BA681343BB607B681B68BA689A607B687E
:102E5C00012283F83D207B68002283F83C2000236C
:102E6C0018461437BD4680BC704700BF002C01408B
:102E7C000004004080B483B000AF786000BF0C3712
:102E8C00BD4680BC704780B483B000AF786000BF93
:102E9C000C37BD4680BC704770B500260C4D0D4CF0
:102EAC00641BA410A64209D100F022F800260A4D9A
:102EBC000A4C641BA410A64205D170BD55F8043B06
:102ECC0098470136EEE755F8043B98470136F2E790
:102EDC00342F0008342F0008342F0008382F000836
:102EEC0003460244934200D1704703F8011BF9E7F3
:102EFC00F8B500BFF8BC08BC9E467047F8B500BFDB
:082F0C00F8BC08BC9E467047AA
:102F140002030405060708090A0B0C0D0E0F101016
:102F24000000000000000000010203040607080975
:042F3400310100085F
:042F38000D0100087F
:102F3C000100000001000000010000000100000081
:102F4C000100000001000000010000000100000071
:102F5C000500000002000000030000000500000056
:102F6C00020000000300000001000000010000004E
:102F7C000100000001000000010000000100000041
:102F8C000100000001000000010000000100000031
:102F9C000100000001000000F401000032000000FC
:102FAC00F40100000024F4001000000001000000F7
:040000050800185D7A
:00000001FF
